:020000040000fa
:080000000002040000000000f2
:020000040000fa
:04000800f8020000fa
:020000040000fa
:04000c00f8020000f6
:020000040000fa
:04001000f8020000f2
:020000040000fa
:04001400f8020000ee
:020000040000fa
:04001800f8020000ea
:020000040000fa
:04001c00f8020000e6
:020000040000fa
:04002000f8020000e2
:020000040000fa
:04002400f8020000de
:020000040000fa
:04002800f8020000da
:020000040000fa
:04002c00f8020000d6
:020000040000fa
:04003000f8020000d2
:020000040000fa
:04003400f8020000ce
:020000040000fa
:04003800f8020000ca
:020000040000fa
:04003c00f8020000c6
:020000040000fa
:04004000f8020000c2
:020000040000fa
:04004400f8020000be
:020000040000fa
:04004800f8020000ba
:020000040000fa
:04004c00f8020000b6
:020000040000fa
:04005000c8020000e2
:020000040000fa
:04005400f8020000ae
:020000040000fa
:04005800f8020000aa
:020000040000fa
:04005c00f8020000a6
:020000040000fa
:04006000f8020000a2
:020000040000fa
:04006400f80200009e
:020000040000fa
:04006800f80200009a
:020000040000fa
:04006c00f802000096
:020000040000fa
:04007000f802000092
:020000040000fa
:04007400f80200008e
:020000040000fa
:04007800f80200008a
:020000040000fa
:04007c00f802000086
:020000040000fa
:04008000f802000082
:020000040000fa
:04008400f80200007e
:020000040000fa
:04008800f80200007a
:020000040000fa
:04008c00f802000076
:020000040000fa
:04009000f802000072
:020000040000fa
:04009400e002000086
:020000040000fa
:04009800f80200006a
:020000040000fa
:04009c00f802000066
:020000040000fa
:0400a000f802000062
:020000040000fa
:0400a400f80200005e
:020000040000fa
:0400a800f80200005a
:020000040000fa
:0400ac00f802000056
:020000040000fa
:0400b000f802000052
:020000040000fa
:0400b400f80200004e
:020000040000fa
:0400b800f80200004a
:020000040000fa
:0400bc00f802000046
:020000040000fa
:0400c000f802000042
:020000040000fa
:0400c400f80200003e
:020000040000fa
:0400c800f80200003a
:020000040000fa
:0400cc00f802000036
:020000040000fa
:0400d000f802000032
:020000040000fa
:0400d400f80200002e
:020000040000fa
:0400d800f80200002a
:020000040000fa
:0400dc00f802000026
:020000040000fa
:0400e000f802000022
:020000040000fa
:0400e400f80200001e
:020000040000fa
:0400e800f80200001a
:020000040000fa
:0400ec00f802000016
:020000040000fa
:0400f000f802000012
:020000040000fa
:0400f400f80200000e
:020000040000fa
:0400f800f80200000a
:020000040000fa
:0400fc00f802000006
:020000040000fa
:04010000f802000001
:020000040000fa
:04010400f8020000fd
:020000040000fa
:04010800f8020000f9
:020000040000fa
:04010c00f8020000f5
:020000040000fa
:04011000f8020000f1
:020000040000fa
:04011400f8020000ed
:020000040000fa
:04011800f8020000e9
:020000040000fa
:04011c00f8020000e5
:020000040000fa
:04012000f8020000e1
:020000040000fa
:04012400f8020000dd
:020000040000fa
:04012800f8020000d9
:020000040000fa
:04012c00f8020000d5
:020000040000fa
:04013000f8020000d1
:020000040000fa
:04013400f8020000cd
:020000040000fa
:04013800f8020000c9
:020000040000fa
:04013c00f8020000c5
:020000040000fa
:04014000f8020000c1
:020000040000fa
:04014400f8020000bd
:020000040000fa
:04014800f8020000b9
:020000040000fa
:04014c00f8020000b5
:020000040000fa
:04015000f8020000b1
:020000040000fa
:04015400f8020000ad
:020000040000fa
:04015800f8020000a9
:020000040000fa
:04015c00f8020000a5
:020000040000fa
:04016000f8020000a1
:020000040000fa
:04016400f80200009d
:020000040000fa
:04020800f8020000f8
:020000040000fa
:04020c00f8020000f4
:020000040000fa
:04021000f8020000f0
:020000040000fa
:04021400f8020000ec
:020000040000fa
:04021800f8020000e8
:020000040000fa
:04021c00f8020000e4
:020000040000fa
:04022000f8020000e0
:020000040000fa
:04022400f8020000dc
:020000040000fa
:04022800f8020000d8
:020000040000fa
:04022c00f8020000d4
:020000040000fa
:04023000f8020000d0
:020000040000fa
:04023400f8020000cc
:020000040000fa
:04023800f8020000c8
:020000040000fa
:04023c00f8020000c4
:020000040000fa
:04024000f8020000c0
:020000040000fa
:04024400f8020000bc
:020000040000fa
:04024800f8020000b8
:020000040000fa
:04024c00f8020000b4
:020000040000fa
:04025000c8020000e0
:020000040000fa
:04025400f8020000ac
:020000040000fa
:04025800f8020000a8
:020000040000fa
:04025c00f8020000a4
:020000040000fa
:04026000f8020000a0
:020000040000fa
:04026400f80200009c
:020000040000fa
:04026800f802000098
:020000040000fa
:04026c00f802000094
:020000040000fa
:04027000f802000090
:020000040000fa
:04027400f80200008c
:020000040000fa
:04027800f802000088
:020000040000fa
:04027c00f802000084
:020000040000fa
:04028000f802000080
:020000040000fa
:04028400f80200007c
:020000040000fa
:04028800f802000078
:020000040000fa
:04028c00f802000074
:020000040000fa
:04029000f802000070
:020000040000fa
:04029400e002000084
:020000040000fa
:04029800f802000068
:020000040000fa
:04029c00f802000064
:020000040000fa
:0402a000f802000060
:020000040000fa
:0402a400f80200005c
:020000040000fa
:0402a800f802000058
:020000040000fa
:0402ac00f802000054
:020000040000fa
:0402b000f802000050
:020000040000fa
:0402b400f80200004c
:020000040000fa
:0402b800f802000048
:020000040000fa
:0402bc00f802000044
:020000040000fa
:0402c000f802000040
:020000040000fa
:0402c400f80200003c
:020000040000fa
:0402c800f802000038
:020000040000fa
:0402cc00f802000034
:020000040000fa
:0402d000f802000030
:020000040000fa
:0402d400f80200002c
:020000040000fa
:0402d800f802000028
:020000040000fa
:0402dc00f802000024
:020000040000fa
:0402e000f802000020
:020000040000fa
:0402e400f80200001c
:020000040000fa
:0402e800f802000018
:020000040000fa
:0402ec00f802000014
:020000040000fa
:0402f000f802000010
:020000040000fa
:0402f400f80200000c
:020000040000fa
:0402f800f802000008
:020000040000fa
:0402fc00f802000004
:020000040000fa
:04030000f8020000ff
:020000040000fa
:04030400f8020000fb
:020000040000fa
:04030800f8020000f7
:020000040000fa
:04030c00f8020000f3
:020000040000fa
:04031000f8020000ef
:020000040000fa
:04031400f8020000eb
:020000040000fa
:04031800f8020000e7
:020000040000fa
:04031c00f8020000e3
:020000040000fa
:04032000f8020000df
:020000040000fa
:04032400f8020000db
:020000040000fa
:04032800f8020000d7
:020000040000fa
:04032c00f8020000d3
:020000040000fa
:04033000f8020000cf
:020000040000fa
:04033400f8020000cb
:020000040000fa
:04033800f8020000c7
:020000040000fa
:04033c00f8020000c3
:020000040000fa
:04034000f8020000bf
:020000040000fa
:04034400f8020000bb
:020000040000fa
:04034800f8020000b7
:020000040000fa
:04034c00f8020000b3
:020000040000fa
:04035000f8020000af
:020000040000fa
:04035400f8020000ab
:020000040000fa
:04035800f8020000a7
:020000040000fa
:04035c00f8020000a3
:020000040000fa
:04036000f80200009f
:020000040000fa
:04036400f80200009b
:020000040000fa
:100400002f8020000e7f24000e01880000000000d5
:10041000000020000000e000020032000001200087
:100420002002880014000700730007000000e000ad
:1004300003003a002066200001002000020037007f
:100440000000200001002000810f70000100320038
:1004500014000700000020000000e000020032004d
:100460000000020000000000000602000000000082
:100470000040da000000fe004440a9000000200017
:100480000000e0000300320000002000a00188000e
:100490004440a800000006008a1f78008b1f7800e7
:1004a0000000060091018800800478000000eb0045
:1004b0001a003700e284440032a0b4009905ba0063
:1004c000e284440032a0b4009906ba00e2844400f9
:1004d00032a0b4000006eb00476fde00fd07b2005b
:1004e000636ce10003003a00ebff07000000eb0043
:1004f0000a003700606ce10004003a00005deb0088
:100500008b05e900fdff3e00040037006168e10053
:10051000010032000086eb000b00070019c7ba008b
:100520001905ba000e04e00003003a000a00e000da
:10053000e0ff3a0000000600fe07b2009e018800be
:100540008a047800f5ff3700395dba008b05e900b1
:100550000c003200295dba008b05e900080032006a
:100560000c00e00003003a00e284440032a0b40032
:10057000f5ff370019ddba008b05e900faff3a00f4
:100580008904e800e184440032a0b40000000600c1
:10059000801f78003400f80000002000a0018800cf
:1005a0000000fa0010c0b30000e8b7008540a900c1
:1005b0000080fa003400f9004f0078000040060087
:1005c000801f78003400f80000002000a00188009f
:1005d0000000fa0010c0b30001e8b7008760a9006e
:1005e0000080fa003400f9004f0078000040060057
:0c05f0000040da000000fe0000000500e2
:020000040000fa
:1005fc000000fa00f04a2000d00888001fe1a80093
:10060c000000000001c8bf000004e000fdff320044
:10061c000168ef001fe1a9000080fa00000006004d
:10062c000200fa00000f78009e0078007002200093
:10063c000088b90000007800d00888001fe1a800ed
:10064c000000000001c8bf000004e000fdff320004
:10065c000168ef001fe1a9000080fa00000006000d
:10066c000200fa00004f7800000000000012800029
:10067c00620060000000e000fcff3a001e80fb00fe
:10068c00401288000000000000c8bf000004e00019
:10069c00fdff32000068ef00000000000012800037
:1006ac00610060000000e000fcff3200401280009e
:1006bc00004078000080fa00000006000200fa00fa
:1006cc00cca2a90000c9b300e5ff07000040eb0075
:1006dc00e3ff07000040eb00e1ff07000040eb00e8
:1006ec00dfff070086000700004f7800840007003a
:1006fc0010479800cca2a80010002000c8ff0700eb
:10070c000080fa00000006000a00fa0010079800aa
:10071c00210798003207980043079800cca2a90043
:10072c0020c0b300ceff07001e009000ae0090006a
:10073c004008de0000407800c9ff07001e00900052
:10074c00ae0090004809dd004800de00000071009a
:10075c00c808de0000407800c1ff07001e009000b2
:10076c0000407800beff07000000eb00000f78008f
:10077c00050037003e0090001e004000104078003d
:10078c00b7ff07001e0fe8004e0090009e00780097
:10079c00808f5000f7ff3900cca2a8001000200079
:1007ac009fff07000080fa00000006000a00fa0014
:1007bc00881f7800100798002107980032079800ce
:1007cc0043079800cca2a90030c0b300a4ff0700d7
:1007dc001e009000ae0090004008de000040780043
:1007ec009fff07001e009000ae0090004809dd003e
:1007fc004800de0000007100c808de0000407800f0
:10080c0097ff07001e0090000040780094ff07003f
:10081c000000eb00000f7800050037003e00900050
:10082c001e04400036000700004c78001e0fe80044
:10083c004e0090009e007800808f5000f7ff39002a
:10084c00cca2a8001000200075ff07004f04780010
:10085c000080fa00000006000a00fa00881f7800e9
:10086c00100798002107980032079800430798005a
:10087c00cca2a900b0c0b30079ff07001e00900005
:10088c00ae0090004008de000040780074ff0700c6
:10089c001e009000ae0090004809dd004800de000c
:1008ac0000007100c808de00004078006cff0700f3
:1008bc001e0090000040780069ff07001000070040
:1008cc000000eb00000f7800050037003e009000a0
:1008dc001e0440000a000700004c78001e0fe800c0
:1008ec004e0090009e007800808f5000f7ff39007a
:1008fc00cca2a8004f0478000080fa00000006008b
:10090c000000fa0000c0eb0055ff07000080fa0061
:10091c00000006000000fa00cca2a90060c6b300db
:10092c004fff0700cca2a800100020003cff0700de
:10093c00cca2a90090c9b30049ff0700cca2a80023
:10094c002bff07000080fa00000006000000fa00f0
:10095c00cca2a90060c0b30041ff0700cca2a80044
:10096c00100020002eff0700cca2a90000c6b30087
:10097c003bff0700cca2a8001000200028ff0700b6
:10098c000080fa00000006000000fa00313a8000f6
:10099c0000e02f0080806000f00320000100700058
:1009ac00303a8800213a800000fe2f000080600061
:1009bc000000a000203a8800213a8000f0f32f00bc
:1009cc0000806000203a8800120020008007200080
:1009dc00a1092000337420008049780081497800f7
:1009ec0082497800103a8000000178000200a000d3
:1009fc0060042000710520002374200080497800d9
:100a0c00814978008249780000000000113a80008a
:100a1c00000027008080600000002100808f5000c3
:100a2c00faff3a0000000000113a8000000220009a
:100a3c00008060000000e000fbff32000080fa0044
:100a4c00000006000000fa008540a9009540a900ae
:100a5c004382a9004362a9004342a9004302a900b2
:100a6c0042c2a90011128000c0ff2f00008060005c
:100a7c000010a000101288001112800030fe2f0010
:100a8c00008060001012880042a2a8004322a90036
:100a9c0041e2a8008540a9009540a8000080fa001a
:100aac00000006000000fa008820a9009820a90088
:100abc006382a9006362a9006342a8006322a900b3
:100acc006302a90062c2a90011128000c0ff2f00ae
:100adc00008060000010a00010128800111280002d
:100aec0030fe2f00008060001012880062a2a80067
:100afc0061e2a8006822ef008820a9009820a800d5
:100b0c000080fa00000006000000fa000080fa00e5
:100b1c00000006000000fa00c842a8004116800040
:100b2c0070fc2f000080600040168800cca2a8004a
:100b3c000080fa00000006000000fa000080fa00b5
:100b4c00000006000000fa004135800000fe2f0076
:100b5c00008060000010a000403588001136800035
:100b6c00f00f2e00808060000070200001007000eb
:100b7c00103688002136800000fe2f0000806000b7
:100b8c000030a0002036880021368000f00f2e00a7
:100b9c0080806000009020000100700020368800ea
:100bac000080fa00000006000000fa000080fa0045
:100bbc00000006000000fa0056ff070063ff070064
:100bcc000080fa00000006000000fa001e61a90077
:100bdc00f1088000f0fc2f0000806000f008880015
:100bec001ec1a9001e21a9009760a8000080fa0070
:100bfc00000006001000fa00c8c2a900ccc2a80070
:100c0c0061ff0700f0ff07008eff0700a5ff07003c
:100c1c00bdff0700bfff0700c7ff0700c9ff0700a4
:100c2c00a6fe0700e3ff07006045230021f12f001b
:100c3c001007980021079800e60047000100090002
:100c4c008018eb008058eb000040eb00004f780060
:100c5c00050037001e80fb009e4078000000470016
:100c6c00614098001e4fe8001e407800e44f500091
:100c7c00f8ff3600660047005300200000017800a2
:100c8c001e009000ae0090009ffe0700eb00470096
:100c9c00040009008058eb006b0047005300200053
:100cac00000178001e009000ae009000bffe07000f
:080cbc0000000000feff3700fc
:020000040000fa
:100cc4000008000002000000000000000000000016
:020000040000fa
:0200000401f009
:04000c008000000070
:020000040000fa
:0200000401f009
:040010006300000089
:00000001FF
